:100000000C949F020C94E6020C94E6020C94E60217
:100010000C94E6020C94E6020C94E6020C94E602C0
:100020000C94E6020C94E6020C9445220C941923DD
:100030000C94E6190C94E6020C94E6020C94E60289
:100040000C94E6020C94E6020C94E6020C94E60290
:100050000C94E6020C943D1A0C94E6020C94E60211
:100060000C94E6020C94E6020C94E6020C94E60270
:100070000C94E6020C94E6020C94E6020C94E60260
:100080000C94E6020C94E6020C94E6020C94E60250
:100090000C94E6020C94E6020C94E6020C94E60240
:1000A0000C94E6020C94E6020C94E60229001E0071
:1000B0001F0020002100220023002400250026002C
:1000C00027002D002E0031002B0014001A0008001C
:1000D000150017001C0018000C00120013002F0060
:1000E00030002A00390004001600070009000A0049
:1000F0000B000D000E000F0033003400000028003C
:10010000E10002531D001B0006001900050011004C
:1001100010003600370038000151E500E000E30030
:10012000E200000000002C0000000000000035008C
:10013000E600E7000151E40029003A003B003C00E2
:100140003D003E003F0040004100420043004400AB
:10015000450001000100010052000100005C0100A7
:100160000100010001000100010001000100010087
:100170000100500051004F0001000100010001008A
:100180000100010001000100010001000100010067
:100190000100010001000100010001000100010057
:1001A0000100010001000100010001000100000048
:1001B000000001000000000000000100010001003B
:1001C0000100010001000100010001000100010027
:1001D0000100010001000100010001000100010017
:1001E0000100010001000100010001000100010007
:1001F00001000100010001000100010001000100F7
:1002000001000100010001000100010001000100E6
:1002100001000100010001000100010001000100D6
:1002200001000100010001000100010001000100C6
:100230000100520001000100010000000000010067
:1002400000000000000001000100500051004F00BC
:100250000100010001000100010001000100010096
:100260000100010001000100010001000100010086
:100270000100010001000100010001000100010076
:100280000100010001000100010001000100010066
:100290000100010001000100010001000100010056
:1002A0000100010001000100010001000100010046
:1002B0000100010001000100010001000100010036
:1002C000010001000100000000000100000000002A
:1002D0000000010001000100010001000000000019
:1002E000000000002A2B2800000000000000000091
:1002F0000000000000000029000000002C1E342037
:10030000212224342627252E362D3738271E1F205C
:100310002122232425263333362E37381F040506A1
:100320000708090A0B0C0D0E0F10111213141516E5
:100330001718191A1B1C1D2F3130232D35040506E3
:100340000708090A0B0C0D0E0F10111213141516C5
:100350001718191A1B1C1D2F3130354C00000000D6
:10036000000000000000000000000000000000008D
:100370007E0F00D4FFFFFFC70000007804033000A9
:1003800000001603470048003600300020005200ED
:10039000650076002000430000001203670065003E
:1003A00065006B006800610063006B0000000403DF
:1003B000090409025B00030100A0FA09040000011E
:1003C00003010100092111010001224000070581FC
:1003D0000308000A090401000203000000092111BA
:1003E0000100012222000705820320000107050306
:1003F000032000010904020001030000000921118B
:1004000001000122BC000705840320000A1201102C
:10041000010000000835430100010001020301064C
:1004200060FF0961A1010962150026FF0095207592
:100430000881020963150026FF00952075089102C6
:10044000C005010902A10185020901A100050919E0
:100450000129051500250195057501810295017594
:100460000381010501093009311581257F95027548
:1004700008810609381581257F95017508810605D3
:100480000C0A38021581257F950175088106C0C0C8
:1004900005010980A101850319012AB7001501266C
:1004A000B700950175108100C0050C0901A10185F7
:1004B0000419012AA002150126A0029501751081D8
:1004C00000C005010906A1018505050719E029E716
:1004D000150025019508750181020507190029EF0E
:1004E0001500250195F075018102050819012905FE
:1004F000950575019102950175039101C0050109EA
:1005000006A101050719E029E715002501950875E1
:100510000181029501750881010507190029FF1560
:100520000026FF00950675088100050819012905B8
:10053000950575019102950175039101C000112483
:100540001FBECFEFDAE0DEBFCDBF04B603FE27C08B
:1005500080919D0290919E02A0919F02B091A00275
:100560008730904BA740B04BD1F410929D0210926F
:100570009E0210929F021092A00214BE84B7877F41
:1005800084BF0FB6F894A89580916000886180932D
:100590006000109260000FBEE0E0F8E3099511E002
:1005A000A0E0B1E0EEEFFAE402C005900D92AA39A6
:1005B000B107D9F722E0AAE9B1E001C01D92AD3937
:1005C000B207E1F70E940A1F0C9442250C94000028
:1005D000229A2A98089522982A980895CF93C82F8E
:1005E00081FF06C00E94E8028C2FCF910C94C604B4
:1005F0000E94EB02F9CF81E0089581E008950C9408
:10060000FD0208950C9401031F93CF93DF9300D054
:1006100000D00F92CDB7DEB749835A836B833091F8
:10062000B20189819A8131111DC06623B9F022235C
:10063000A9F00E94E716182F682F89819A810E94DD
:10064000931669817A81812F0F900F900F900F90F0
:100650000F90DF91CF911F910C942B0A0E94BF162F
:10066000182FEFCF0E94E71669817A81EDCFFC0148
:10067000262F408151816281738184810C9404030F
:10068000CF93DF93EC0160E00E943703BE01DF915E
:10069000CF910C940203FF920F931F93CF93DF939C
:1006A000E82FF0E0E452FD4FF490C82FC695C695B0
:1006B000C695D0E0FE01E459FC4F0491877010E02C
:1006C000082E02C0159507950A94E2F701701127CC
:1006D000C45ADC4FFE01C491D0E002C0D595C79545
:1006E0008A95E2F7C170DD270115110519F081EE39
:1006F0000E94830E209719F086EE0E94830E8F2DA4
:100700000E946B0FCD2B19F086EE0E94150F012B66
:1007100041F081EEDF91CF911F910F91FF900C94EA
:10072000150FDF91CF911F910F91FF900895EF92D8
:10073000FF920F931F93CF93DF93EC01162F0AE0E4
:100740008881882309F454C0813009F04EC0898122
:10075000813099F47E0122E0E20EF11C8A810E9430
:100760006B0FE7012196812F815050F3EFE9FFE0F5
:100770003197F1F700C00000F7CF823041F47E01DD
:1007800082E0E80EF11C8A810E94830EEACF83305A
:1007900041F47E01E2E0EE0EF11C8A810E94150F09
:1007A000E0CF843011F02196DDCF2A81229690E0AF
:1007B00080E0AE014F5F5F4F2053330B2A3031058D
:1007C00048F0019778F2EFE9FFE03197F1F700C0C8
:1007D0000000F7CF089FB001099F700D1124C901D7
:1007E000860F971F2981EA01E4CF0E944B03BACFFD
:1007F000DF91CF911F910F91FF90EF90089560E0EE
:100800000C9497038F929F92AF92BF92CF92DF92F8
:10081000EF92FF920F931F936B017C0181E090E0B8
:10082000A0E0B0E04C015D0104C0880C991CAA1C3A
:10083000BB1C4A95D2F7B501A4014C015D0104C06F
:10084000880C991CAA1CBB1C2A95D2F74829592947
:100850006A297B2904C0880F991FAA1FBB1F0A950C
:10086000D2F78A019B010C211D212E213F21041763
:1008700015072607370789F48C299D29AE29BF293A
:10088000BC01CD011F910F91FF90EF90DF90CF90B1
:10089000BF90AF909F908F90089580959095A09570
:1008A000B0958C219D21AE21BF21EACF0F93382F27
:1008B000262F609118027091190280911A0290916E
:1008C0001B02042F432F0E9402040F910C94D11598
:1008D0000E94871A0E943118811102C00E94CE180E
:1008E0000C94CF060C94D20608950E94FA110E942F
:1008F00074042FEF84E39CE0215080409040E1F7A6
:1009000000C000000C94611A0F931F93CF93DF93E4
:10091000EC0161E00E9437038C01BE010E94620875
:10092000882359F1BE01C8010E94FF02882329F1E2
:10093000BE01C8010E94810B8823F9F0BE01C801E5
:100940000E94D30B8823C9F0BE01C8010E94F60C97
:10095000882399F08A81882339F001158CE51807DE
:1009600051F00E3D1C4579F0CE01DF91CF911F91E2
:100970000F910C94FB020E94750480E0DF91CF91EF
:100980001F910F9108950E94CE18F7CF089581E02E
:1009900008950C94C704CF93C82F0E94EE028C2FA9
:1009A000CF910C94C90490E080E008950895FC0173
:1009B000EE0FFF1FE458FC4F859194910895CF935B
:1009C000DF930E942B0A0E94F405EC01811520E5BB
:1009D000920708F042C0811530E4930708F0BDC0CB
:1009E000883E910528F5803E910508F09DC0883A23
:1009F000910588F4853A910508F08FC08130910502
:100A000009F492C0009709F48FC0049708F08CC0D5
:100A1000D0E0C0E089C08F3B910508F489C0805CBC
:100A20009109C03CD105A0F30E94D704EC017CC021
:100A30008115904250F4C11581E0D80708F074C0C8
:100A4000C03FD10528F3D0656FC0C11590E3D90729
:100A500008F079C0CE019F70E7CF811525E5920798
:100A600058F5811534E5930708F0A6C0811542E5D5
:100A7000940750F4C11581E5D80708F471C0DC2F44
:100A8000CC27C16FD06A50C0982F969596959E013D
:100A900023703327C115D34508F07FC0C1E0D0E0F3
:100AA00002C0CC0FDD1F2A95E2F720E2929FC00121
:100AB0001124C82BD92B6FC0C11589E5D807A8F41C
:100AC000C11598E5D90708F07CC0C11526E5D20705
:100AD00008F09ECF8C2F0E948B06C82FD0E0DC2F11
:100AE000CC27CC27DF71D0621FC0C1153AE5D307F0
:100AF00008F46CC0CE0190568115904208F088CF62
:100B00008D2F8F710E948B0690E0982F8827882761
:100B10009F719C012C2BE901E6CFC55AD0E0CD5B3B
:100B2000DE4FC881D0E0D064CE01DF91CF9108952F
:100B3000C85AD0E0CC0FDD1FCB5EDE4F0990D881C4
:100B4000C02DD464F1CFCE019927D3FF03C0EC01AF
:100B5000D86CEACFEC01D06CE7CFDF70D06AE4CF7D
:100B6000CE01E4E096958795EA95E1F783702C2F06
:100B700026952695237090E2299F90011124382B09
:100B80008C2F8370C1E0D0E002C0CC0FDD1F8A95AE
:100B9000E2F7C22BD32BDC68C7CFC1E0D0E002C0A4
:100BA000CC0FDD1F2A95E2F730E2939FC00111249C
:100BB000C82BD92BDA68B8CFD82FCC27C46FD06A0E
:100BC000B3CFDC2FCC27C06FD06AAECF8C2F8F7005
:100BD0000E948B0634E0D695C7953A95E1F7CF7021
:100BE0009C2FEC01D069A0CF82389105B1F1B0F40F
:100BF0008133910509F475C048F48932910509F4EF
:100C000069C08A32910509F473C00895853391054E
:100C100009F459C08933910501F10895833E910586
:100C2000A9F138F4803E9105F9F0823E910549F131
:100C30000895863E9105A9F1873E9105C9F1843E4C
:100C4000910519F520918F0221FF1FC080918E021E
:100C500084FD14C087EE90E0089520918E022370E9
:100C6000A1F080EE90E0089520918E0220FD47C013
:100C700030918F0230FF09C024FF44C090E080E033
:100C800004C020918E0222FDF7CF089520918E029C
:100C900022FD3BC030918F0230FDE3CF24FFF5CF22
:100CA000EDCF20918E0223FFF0CF24FDE7CFD2CFEE
:100CB00020918E0223FD2CC030918F0231FFEECFA8
:100CC00084EE90E0089520918E0225FFDECF89E228
:100CD00090E0089520918E0225FFD7CF85E390E024
:100CE000089520918E0226FFD0CF8AE290E00895E9
:100CF00020918E0226FFC9CF81E390E0089589E319
:100D000090E0089583EE90E0089582EE90E00895DB
:100D100086EE90E0089590918E0292FF06C0282FF3
:100D200028712830F9F4877F846093FF06C0282F4C
:100D300028712831F1F4877E846120918F0220FF91
:100D400006C0382F38713830D9F4877F816021FF91
:100D500006C0282F28712831D1F4877E816194FD47
:100D6000877E0895282F24712430F9F68B7F8860C0
:100D7000DCCF282F2471243101F78B7E8861DDCFF1
:100D8000382F3171313019F78E7F8860E0CF282FEE
:100D90002171213121F78E7E8861E1CF08950C9475
:100DA000CE0608950C94D106E82FF0E0EE0FFF1F59
:100DB000E058FD4F808191810895089580EA8A95D9
:100DC000F1F70895CF93DF93A4E5B1E049E551E051
:100DD000C1E0D0E08D91E82FE295EF70F0E061A1E5
:100DE0008F709E0101C0220F8A95EAF7922F90958D
:100DF000962391A382A1822B82A34A175B0751F706
:100E0000A6E4B1E061E070E08D91E82FE295EF702B
:100E1000F0E041A18F709B0101C0220F8A95EAF793
:100E2000922F9095942391A382A1822B82A381E09B
:100E3000A435B80749F71092770210927602109203
:100E40008102109280021092790210927802109220
:100E500083021092820210927B0210927A02109208
:100E600085021092840210927D0210927C021092F0
:100E700087021092860210927F0210927E021092D8
:100E800089021092880285E00E94D107DF91CF91FC
:100E90000C9468048F929F92AF92BF92CF92DF9290
:100EA000EF92FF920F931F93CF93DF9384E5E82E89
:100EB00081E0F82E06E712E0912CAA24A394B12C2D
:100EC000F70181917F01C82FC295CF70D0E099A121
:100ED0008F70650101C0CC0C8A95EAF7892F8C29A7
:100EE00089A38AA18C2C809488218AA30E94DE0683
:100EF000E6E4F1E050E040E030E020E06191A62F30
:100F0000A295AF70B0E090968C9190E06F7002C0A7
:100F1000959587956A95E2F780FD3EC0C501042E40
:100F200002C0880F991F0A94E2F7282B392B4F5FD4
:100F30005F4F4E30510511F789A1882289A28AA1FD
:100F4000C82ACAA2F801808191812817390739F18E
:100F50003183208381E0982A0E5F1F4FF9E5EF1659
:100F6000F1E0FF0609F0ACCF292D45E060E872E022
:100F700086E792E00E94D2070E947204892DDF91D9
:100F8000CF911F910F91FF90EF90DF90CF90BF9086
:100F9000AF909F908F90089590E080E0C6CF80E062
:100FA000DACF0895FF920F931F93CF93DF93F82E1C
:100FB000092F162FD72FC42F222349F081E08093C9
:100FC0009C010E94161A90939B0180939A01809134
:100FD0009C018823A1F080919A0190919B010E942D
:100FE0002E1A069760F0EF2DF02FA12FBD2F90E065
:100FF00080E0D0E08C179D0744F010929C01DF91B7
:10100000CF911F910F91FF900895219131912D93D0
:101010003D930196EFCF82E290E00E94002580325E
:1010200089F483E290E00E940025813159F484E242
:1010300090E00E94002591E0823109F090E0892F34
:101040008170089580E0FCCFCF93C82F6FEF81119E
:1010500060E282E290E00E940E256FEFC11161E133
:1010600083E290E00E940E256FEFC11162E184E2FD
:1010700090E0CF910C940E2580E00E9424080C94FF
:101080002B18089585E290E00E940025682F70E0FB
:1010900090E080E0089585E290E00C940E250E9497
:1010A00041080E940B0881110CC060E070E0CB0188
:1010B0000E944B080E94A3090E948F0A81E00C94B1
:1010C00024080895CF93FB01C281CC2309F19C0130
:1010D00022513F452031310520F582510E949F0A5F
:1010E000C0E08C2FCF91089581E00E94F71543E076
:1010F00062E081E00E945604F3CF81E00E9418165E
:1011000043E062E081E00E945604EBCF82E0F6CF3C
:101110008031FFE59F0789F381319F45B9F3C1E035
:10112000E0CF8031EFE59E07F9F281319F45C9F6A6
:1011300082E0DBCF2FEFFC0120830895EF92FF9236
:101140000F931F93CF93DF93EC01062FE881E150BB
:10115000E33108F05EC0F0E0EC5BFA4D0C94DF2464
:10116000198289E08A83602FCE01DF91CF911F9190
:101170000F91FF90EF900C94FE1D8981823069F0F1
:10118000833071F08130D9F40E94221A0E94E52444
:101190006A837B838C839D83E6CF0E944208F6CFCF
:1011A0007E0110E0812F0E94D406F7019283838391
:1011B0001F5FF2E0EF0EF11C1530A1F7D4CF602FC6
:1011C000CE010E949A08CFCF89818230C1F76A810F
:1011D0007B818C819D810E94E5240E944B08C3CFB6
:1011E0004B816A8189810E947509982789279827F0
:1011F0009D838C83B8CF2C813D81322723273227D2
:101200004B816A8189810E948E09ADCF0E94A3091A
:10121000AACF8FEF8883A7CF0E94380A8983A3CFF4
:101220000E943A0A9827892798279A8389839BCF17
:101230006B8170E089819A81AE014C5F5F4F982786
:10124000892798270E943D0A8ECF6B8170E08981A3
:101250009A81AE014C5F5F4F9827892798270E949B
:10126000640A81CF0E948F0A7ECF0E946309D6CF85
:101270006B8170E089819A81AE014C5F5F4F982746
:10128000892798270E94DB096ECF6B8170E08981E6
:101290009A81AE014C5F5F4F9827892798270E945B
:1012A000010A61CF0E943C085ECF0E94FE1D2FEF15
:1012B00081EE94E0215080409040E1F700C00000B2
:1012C0000E94611A50CF84E0089550E0440F551FEA
:1012D0009CE1699F400D511D11249CE8899F400DA0
:1012E000511D1124CA01869608950F931F93CF9321
:1012F000DF930E9465098C010E940025C82FD0E071
:10130000DC2FCC27C80101960E9400259E01282BC6
:10131000C901DF91CF911F910F9108950F931F93F2
:10132000CF93DF93122F032F0E946509EC01602FEA
:101330000E940E25612FCE010196DF91CF911F9162
:101340000F910C940E25AF92BF92CF92DF92EF9245
:10135000FF921F93CF93DF938CEAC82E80E0D82EA4
:10136000D0E07601C0E014C0F50125913491412F01
:101370006C2F8D2F0E948E0982E0A80EB11C1F5F7A
:101380001E3091F78CE1E80EF11CCF5FC53019F0EB
:10139000570110E0E9CFDF5F8CE8C80ED11CD430D4
:1013A00001F7DF91CF911F91FF90EF90DF90CF90E9
:1013B000BF90AF900895EF92FF920F931F93CF933A
:1013C000DF93EC018A017C01E60EF71ECE018696C2
:1013D000CE15DF0539F4DF91CF911F910F91FF906A
:1013E000EF900895C03322E0D20740F40E94002518
:1013F000F80180830F5F1F4F2196E8CFF80110821C
:10140000F9CFCF92DF92EF92FF920F931F93CF937A
:10141000DF937C016A018C01060F171FEC01CE01DE
:101420008696C017D10749F4DF91CF911F910F9194
:10143000FF90EF90DF90CF900895C03322E0D20765
:1014400040F4FE01EE19FF09EC0DFD1D60810E94C4
:101450000E252196E4CF462F843038F4753028F4D9
:101460006E3018F4672F0C94750990E080E00895B1
:1014700080E108958AEA91E00895EF92FF920F9338
:101480001F93CF93DF93EC018A017C01E60EF71ED8
:10149000CE018A5A9D4FCE15DF0539F4DF91CF91E9
:1014A0001F910F91FF90EF900895CA3A21E0D20763
:1014B00040F40E940025F80180830F5F1F4F2196A2
:1014C000E7CFF8011082F9CFCF92DF92EF92FF922F
:1014D0000F931F93CF93DF937C016A018C01060F5A
:1014E000171FEC01CE018A5A9D4FC017D10749F44E
:1014F000DF91CF911F910F91FF90EF90DF90CF90F0
:101500000895CA3A21E0D20740F4FE01EE19FF091E
:10151000EC0DFD1D60810E940E252196E3CFCF9337
:10152000DF93C6E5D2E060E0CE010E940E25219651
:10153000C11584E0D807B9F7DF91CF910895DF9204
:10154000EF92FF920F931F93CF93DF9300D000D0C1
:10155000CDB7DEB7F82E8FE08F1540F08FEF93E018
:101560000E94002506E512E08823C1F00F900F903D
:101570000F900F90DF91CF911F910F91FF90EF90FF
:10158000DF900895011584E0180781F3C8010E94D7
:101590000025811101C0FA940F5F1F4FF110F2CFA7
:1015A00019821A821B821C82DD24D39478018FEF6A
:1015B000E81AF80AC8010E94002589831A82882344
:1015C000A9F29FEF980F933078F48A83D9820E5F47
:1015D0001F4FC7010E9400258B83882339F2CE015B
:1015E00001960E94FF03E2CF8701F9CFAF92BF922D
:1015F000CF92DF92EF92FF920F931F93CF93DF93DF
:101600007C015B01C42FD22FFC0182818823F9F079
:1016100040939F010E94161A90939E0180939D0112
:1016200080E28C0F883008F061C0C77081E001C093
:10163000880FCA95EAF7DF91CF911F910F91FF9024
:10164000EF90DF90CF90BF90AF900C947E0F1091F1
:101650009F01141340C080919D0190919E010E94B2
:101660002E1A6C01B701C5010E947014C816D90664
:1016700090F5C0E2CD0F1D17B9F080E2810F8830E0
:1016800040F4177081E001C0880F1A95EAF70E94B4
:10169000850FC83048F481E09D2F977001C0880FF6
:1016A0009A95EAF70E947E0F802F0E946B0FC83038
:1016B000E8F4D77081E001C0880FDA95EAF7DF918E
:1016C000CF911F910F91FF90EF90DF90CF90BF903F
:1016D000AF900C94850F80E28C0F883038F4C7707F
:1016E00081E001C0880FCA95EAF7E9CFDF91CF9179
:1016F0001F910F91FF90EF90DF90CF90BF90AF9030
:1017000008950F939C01CB01233F4CE5340759F119
:10171000A8F4283DFCE53F0701F1293D4CE53407DD
:10172000D1F1273D3C4591F406E221EE41EE67ED13
:101730007CE50E94F60A80E00F910895253FFCE5C4
:101740003F07E9F0B0F0263F3C45F9F0FC0182810B
:10175000882339F110929F01EFCF07E225EE45EE85
:1017600068ED7CE5E6CF06E221EE40EE63EF7CE536
:10177000E0CF07E225EE44EE64EF7CE5DACF06E247
:1017800021EE42EE65EF7CE5D4CF07E225EE46EE92
:1017900066EF7CE5CECF08E221E045EE69ED7CE521
:1017A000C8CF81E0C9CFCF93DF93EC01FB018281E9
:1017B000882309F419C1C230FCE5DF07C0F1C63146
:1017C0009CE5D90730F09E012A5F3C452930310560
:1017D00070F50E94441890938F0280938E02C0315E
:1017E000ECE5DE0709F4CFC008F05BC0C8308CE53B
:1017F000D80709F4B6C088F5C430ECE5DE0709F473
:10180000A8C0C0F4C2308CE5D80709F49CC0809110
:101810008E028260C330DC4509F498C080918E024C
:1018200090918F020E9452180E94FA1180E0DF917D
:10183000CF91089580918E028061C630ECE5DE077D
:1018400009F484C080918E028860C730DC4508F4BA
:101850007DC080918E02806279C0CC308CE5D80743
:1018600009F489C070F480918E028C60CA30ECE576
:10187000DE0709F46BC008F478C080918E028E7F79
:1018800065C0CE308CE5D80709F479C080918E020E
:101890008B7FCF30DC4508F459C080918E028F7E5B
:1018A00055C0CB3FECE5DE0709F457C030F5C33136
:1018B0008CE5D80709F46FC078F4C131ECE5DE0798
:1018C00009F465C0C231DC4509F0A8CF0E94FA11C5
:1018D00080918E028F773AC0C5318CE5D80709F424
:1018E00062C008F476C080918F028160CA3FDC45F7
:1018F00009F094CF80938F0291CFCF3FFCE5DF07B3
:1019000009F44DC088F480918F028D7FCD3F9CE516
:10191000D90781F380918F028E7FCE3FDC4550F353
:1019200080918F028360E6CFC130FDE5DF0709F4C7
:1019300059C008F444C080E0C230DD4509F06ECFE4
:101940000E94D0186BCF80918E02816080938E02AE
:1019500065CF80918E028460F9CF80918F02826082
:10196000C9CF80918E028064F1CF0E94FA118091DC
:101970008E028068EBCF80918E028D7FE7CF8091C1
:101980008E02877FE3CF80918E028F7DDFCF8091A3
:101990008E028F7BDBCF80918E02837FD7CF8091A9
:1019A0008F028C7FA7CF80918E0282FB992790F9BE
:1019B00021E0922790FB82F990FB83F9C7CF8091B9
:1019C0008F02982F909591708E7F892B90FB81F9D3
:1019D00091CF0E94FA1190918E02892F97FB87F97F
:1019E0008058B4CF81E0ACCF81E021CFCF93DF939B
:1019F000EB0186319C4511F50E947C179A81992351
:101A000099F08A7A91E009F490E09093A001811115
:101A100009C089E20E9457170E94C81780E0DF9131
:101A2000CF91089585E3F6CF8091A001811104C084
:101A300089E20E945E17F0CF85E3FBCF81E0EFCF14
:101A40009093A6018093A5010895E091A501F091DE
:101A5000A601309721F00190F081E02D099480E0FB
:101A60000895E091A501F091A601309799F0209199
:101A70001401222359F020918E0227FF07C0DC01B8
:101A80002C9111962C93119725E02C930280F381D1
:101A9000E02D09940895E091A501F091A6013097F9
:101AA00039F022E0DC012C930480F581E02D0994CB
:101AB00008952091A3013091A4012817390771F0EE
:101AC0009093A4018093A301E091A501F091A60158
:101AD000309721F00680F781E02D09940895209138
:101AE000A1013091A2012817390771F09093A2014A
:101AF0008093A101E091A501F091A601309721F01A
:101B00000084F185E02D0994089585B7806885BF2C
:101B100085B7806885BF0895089508950C948C0D4D
:101B200008950C94900D0E94850D0E948D0D0C94CB
:101B30008E0D81E008950C94990D0E940D1A0E945B
:101B4000E2060E944F080E949B1A0C94910D9F92EE
:101B5000AF92BF92CF92DF92EF92FF920F931F93BB
:101B6000CF93DF93CDB7DEB72A970FB6F894DEBFD9
:101B70000FBECDBF0E944A070E949B0D882309F427
:101B800070C058EAA52E51E0B52E10E000E0902E6E
:101B9000802F0E94D4066C01F501E190F1905F0165
:101BA000E816F90609F457C08091450281FD0E94AC
:101BB000DD0697012C253D2580E0EE24E394F12CF1
:101BC000A9014E215F21452B09F43FC08E839F82DE
:101BD000CE20DF2081E0CD2809F480E088870E94B4
:101BE000161A8160782F9A8789874E815F81688570
:101BF0008A850E94540E000F111FF801E855FE4F10
:101C000080819181E826F926F182E0820E94461CBB
:101C10000E94250D9091A7018917A1F10E94250D21
:101C20008093A7012A960FB6F894DEBF0FBECDBFF2
:101C3000DF91CF911F910F91FF90EF90DF90CF90A8
:101C4000BF90AF909F900C94CB048F5FEE0CFF1C65
:101C50008E3009F0B5CF0F5F1F4F0530110509F029
:101C600096CF8FEF89838A831B820E94161A816028
:101C7000782F9D838C8349815A816B818D810E944D
:101C8000540EC4CF2A960FB6F894DEBF0FBECDBF58
:101C9000DF91CF911F910F91FF90EF90DF90CF9048
:101CA000BF90AF909F900895CF93DF93CDB7DEB7ED
:101CB0002B970FB6F894DEBF0FBECDBF4F8358876A
:101CC00069877A878B871E821D8285E0FE013796A1
:101CD000DE01119601900D928A95E1F749815A81B2
:101CE0006B817C818D819E812B960FB6F894DEBF2F
:101CF0000FBECDBFDF91CF910C947314FC01808196
:101D000091810C942917CF93C82F882309F48BC095
:101D10008238C1F40E94250D81FD85C089E30E94AF
:101D200057170E94C8172FEF81EE94E02150804092
:101D30009040E1F700C0000089E30E945E17CF9158
:101D40000C94C8178338A1F40E94250D80FD6BC048
:101D500083E50E9457170E94C8172FEF81EE94E089
:101D6000215080409040E1F700C0000083E5E5CFBE
:101D70008438A1F40E94250D82FD55C087E40E949D
:101D800057170E94C8172FEF81EE94E02150804032
:101D90009040E1F700C0000087E4CFCF8CEF8C0FBC
:101DA000813A90F46C2F80910001909101010E9482
:101DB000E918882329F08C2F0E945E170E94C8170B
:101DC0008C2F0E945717BBCF80E28C0F883048F4CD
:101DD000C77081E001C0880FCA95EAF70E947F179B
:101DE000AECFEBE5EC0FE33040F4F0E0E957FE4F07
:101DF000808190E0CF910C94590DE8E5EC0FE7312C
:101E000050F4F0E0EE0FFF1FE75AFE4F8081918102
:101E1000CF910C946F0DC03F30F08C2F0E94401B6F
:101E2000CF910C942B1CCF910895882309F452C0B4
:101E3000823871F40E94250D81FF4CC089E30E9415
:101E400057170E94C81789E30E945E170C94C817A1
:101E5000833859F40E94250D80FF3CC083E50E9421
:101E600057170E94C81783E5EFCF843859F40E94B2
:101E7000250D82FF2FC087E40E9457170E94C817C4
:101E800087E4E2CF9CEF980F913AF0F290E2980F3E
:101E9000983050F4877091E001C0990F8A95EAF765
:101EA000892F0E948517D2CF9BE5980F933020F49D
:101EB00090E080E00C94590D98E5980F973120F44C
:101EC00090E080E00C946F0D803F20F00E94A81BF2
:101ED0000C942B1C0895CF93C82F0E94830EC933F6
:101EE00049F42FEF87EE93E0215080409040E1F7D6
:101EF00000C000008C2FCF910C94150F882321F087
:101F00000E947F170C94C8170895882321F00E941F
:101F100085170C94C8170895BF92CF92DF92EF9265
:101F2000FF920F931F93CF93DF936C01D62FC72F90
:101F3000FC01058102950F70128111110E949C17FE
:101F40000E947517E82E882391F01123D1F08C2F71
:101F5000807F803421F080E28D0F883090F082E025
:101F60000E9413180E94751791E0E82EE926BC2EF6
:101F7000B2949FE0B922EB2DF0E0E95AFA4D0C94AF
:101F8000DF24E12CF4CF0C2F0F70C07F11F00295ED
:101F9000007F1123A9F0002359F080E28D0F8830D3
:101FA00010F0D11109C0802F0E947F170E94C8171E
:101FB0008D2F0E94830E14C0802F0E948F17F6CFA2
:101FC0008D2F0E94150F002359F080E28D0F88306D
:101FD00010F0D1112CC0802F0E9485170E94C817C5
:101FE0002B2D2850330B2430310520F40E94250D71
:101FF0000E94CB04EE2009F49EC10E94711780FD5F
:102000009AC1F60112820E946B170E94F715C60151
:102010000E94BC110E946B17DF91CF911F910F910D
:10202000FF90EF90DF90CF90BF900C941816802F08
:102030000E949517D3CFFC2FFF70FF2EC07FC032B8
:1020400019F0F29480EFF822DD2369F0D13049F1E4
:10205000112391F1002351F1F601858180FFA8CF72
:102060008F70858323C0112381F0011106C00E9467
:10207000AF178F290E947E0FB3CF0130C1F70E94A6
:10208000AF178F290E94B517ABCF011106C00E9470
:10209000BE178F2D0E94850FA3CF013009F4A0CF6A
:1020A000F6CF112329F0063008F09ACF8F2DE2CF1A
:1020B000053008F095CFEDCF002359F3D93349F41B
:1020C000FFEF27EE33E0F15020403040E1F700C051
:1020D00000008D2F0E94150F83CF8C2F869586953B
:1020E000837069F0813009F07BCF8D2F9C2F937026
:1020F000111102C090E080E00E946F0D71CF8D2F12
:102100009C2F9370111102C090E080E00E94590D45
:1021100067CF8D2F112329F00E94401B0E942B1C9A
:102120005FCF0E94A81BFACF8C2F837009F041C0AB
:10213000111156CF4D2F429546954770440F440FCD
:102140000D2F0F7010E030E020E0042E04C0000FCF
:10215000111F221F331F0A94D2F760E070E0CB01F9
:10216000D4FF0FC06FE070E080E090E004C0660F25
:10217000771F881F991F4A95D2F7609570958095B3
:102180009095C695C695C370602B712B822B932BAF
:10219000C23049F058F4C13019F00E94A91520CF7F
:1021A0000E9497151DCF0E94BB151ACF0E9495154E
:1021B00017CF8695112311F08C2F8170882309F495
:1021C0000FCF4D2F429546954770440F440F0D2F6A
:1021D0000F7010E030E020E0042E04C0000F111F4B
:1021E000221F331F0A94D2F760E070E0CB01D4FFC6
:1021F0000FC06FE070E080E090E004C0660F771FD2
:10220000881F991F4A95D2F7609570958095909593
:10221000C695C695C370602B712B822B932BC23051
:1022200049F058F4C13019F00E946E16D9CE0E94C0
:102230005C16D6CE0E948016D3CE0E94D115D0CE89
:10224000CF70112329F08C2F0E94F7158D2F12CFFC
:102250008D2F0E94850F8C2F0E941816C1CED23F61
:1022600089F160F4D03FC9F0D13F29F1112309F47D
:1022700042C001119DCE8C2F8F7121C0D33F39F107
:10228000D43FA1F7112369F1CF718C2F0E94F7156C
:1022900063E08C2F0E94FE17A3CE112341F005307E
:1022A00008F09ECE8C2F8F710E943B1699CE06307F
:1022B00008F096CEF7CF8C2F8F71112369F20E9410
:1022C000F7158ECE8C2F8F711123C9F3C5CF112333
:1022D00029F08C2F8F710E94E21582CE0E94DD15AD
:1022E0007FCE81E00E941318023008F479CE82E09C
:1022F0000E94131875CE002359F0D93309F0E9CEA6
:102300008FEF97EEE3E081509040E040E1F7DFCEC1
:102310008C2F8F71A1CF4C2F4F706D2FC6010E9453
:10232000D3040E940D155CCE4C2F4F706D2FC6014B
:102330000E94D60455CEDF91CF911F910F91FF904F
:10234000EF90DF90CF90BF9008950F931F93CF939E
:10235000DF93EC01688179818A810E9433178C01B7
:102360000E9492160E949415B801CE01DF91CF9180
:102370001F910F910C948C0FCF93DF93EC018B8105
:102380009C81892B29F08881998189238F3F59F479
:10239000DF91CF910895CE010E94A511CE01DF916A
:1023A000CF910C944003CE010E9484048111F3CF9D
:1023B0000E947517882361F38A81882349F382E09C
:1023C000DF91CF910C9413180E949C170E94AC17B8
:1023D0000E94C8170E94521D0E942B1C90E080E0B2
:1023E0000E94590D90E080E00C946F0D0E946517DB
:1023F0000C94E4110E948C170C94F611E92FE295CD
:10240000EF70E250EE3070F4F0E0E959FA4D0C94C0
:10241000DF24803F19F020F4883E20F481E0089505
:10242000843FE1F380E00895883EC0F3813FD1F717
:10243000F5CF93FB882780F908950E9429170C9403
:10244000FE11CF93DF9300D000D00F92CDB7DEB74F
:102450000F900F900F900F900F90DF91CF910895F4
:10246000CF93DF9300D000D000D0CDB7DEB7269653
:102470000FB6F894DEBF0FBECDBFDF91CF910895A8
:102480001F93CF93DF93C091B30116E08091B40105
:102490008C1304C0DF91CF911F910895D0E01C9F51
:1024A000F0011D9FF00D1124EB54FE4F408151812E
:1024B00062817381848195810E9430122196C77058
:1024C000E5CF4091E5015091E6016091E7017091FF
:1024D000E8018091E9019091EA010C9430121F9378
:1024E000CF93DF938091EA01807FA9F48091E70187
:1024F000882389F08091B301C091B4016091E50116
:102500007091E601A091E801B091E901D62FD7239F
:1025100016E0C81304C0DF91CF911F91089590E099
:10252000109711F0DF3F19F401968770F2CF189FD2
:102530009001199F300D1124F901EB54FE4F418198
:102540004713F2CF40814613EFCF42814111ECCFC8
:10255000438154814A1B5B0B483C510528F780910D
:10256000EA018F7080618093EA01F901E654FE4F21
:1025700080818F708061808385EE91E00E94BC1124
:10258000DF91CF911F910C944012AF92BF92CF92E6
:10259000DF92EF92FF920F931F93CF93DF93CDB70C
:1025A000DEB761970FB6F894DEBF0FBECDBF8C01CA
:1025B00085E0F801DE011D9601900D928A95E1F704
:1025C000F80140815181E28085EEC82E81E0D82E4D
:1025D0006091E8017091E9016115710509F461C12B
:1025E0009091E5012091E601892F82238F3F09F424
:1025F00058C1A380B480F090E701F501E61BF70B0A
:10260000FF2009F4FCC08091EA01382F307FE83CBC
:10261000F10508F0B2C0311179C0FE2C251323C09A
:10262000941321C0E1101FC08F7080618093EA0174
:102630000E946112C6010E94BC118091EA01F8015A
:1026400085838F2D61960FB6F894DEBF0FBECDBF88
:10265000DF91CF911F910F91FF90EF90DF90CF907E
:10266000BF90AF900895AB2829F0842F85238F3F2A
:1026700009F033C180E0F82FF170DF2E80FF3CC0FD
:102680008091B3012091B40136E0821315C04D87CB
:102690005E878D859E850E942917292F22952F7090
:1026A0002230F0F0243018F59F70F1F0F801958198
:1026B000907FD1F4D12C1EC090E0389FF001399F5B
:1026C000F00D1124EB54FE4F6181651306C060814B
:1026D000641303C062816E110FC001968770D5CF5D
:1026E0009F7011F0882331F3805E883018F3C801A1
:1026F0000E94BC11FD2CA5CFEE2009F4A2CF809141
:10270000EA0181608093EA01F12C9BCF251306C07A
:10271000941304C0F801EE2009F48DC04D875E8744
:102720008D859E850E941D12882319F1EE2009F1E6
:102730008091EA01803270F02091E5013091E6014C
:1027400038872F831986BB86AA868C87CE01079689
:102750000E94BC1186E0F801A5EEB1E001900D9257
:102760008A95E1F70E946F120E946112FF24F39490
:1027700068CFC8010E94BC11F9CF311113C07A2D66
:10278000B98AA88A6E2D89890E94211285EE91E06E
:102790000E94BC1186E0F60111928A95E9F70E9429
:1027A0006112B2CF25130FC094130DC0E1100BC0FE
:1027B000F8018583C8010E94BC1186E0F6011192E0
:1027C0008A95E9F73ECF4D875E878D859E850E946D
:1027D0001D12882371F2EE2061F28091EA018032AD
:1027E00008F4B8CF2091E5013091E6013A832983BE
:1027F0001B82BD82AC828E83CE010196A9CFE83CBC
:10280000F10508F041C0FE2CEE2009F4B2CF2513EB
:102810002AC0941328C08091EA0180FD1BC0982F24
:10282000907FC1F0F8018583903F31F0982F907F21
:10283000905F8F70892B8583C8010E94BC1186E050
:10284000F801A5EEB1E001900D928A95E1F70E94A2
:102850006112F7CE86E0F801A5EEB1E001900D928D
:102860008A95E1F7EECE4D875E878D859E850E9425
:102870001D1281116FCF8091EA0181608093EA017E
:10288000C8010E94BC11DDCE7A2DB98AA88A6E2DAE
:1028900089890E94211286E0F60111928A95E9F752
:1028A000D6CFEE2009F465CF4D875E878D859E8556
:1028B0000E941D12F82E882309F45BCF86E0F801F0
:1028C000A5EEB1E001900D928A95E1F785EE91E0D9
:1028D0000E947E0E0E946F12BACF81E08E25CBCE71
:1028E00088EC90E008951F93CF93DF93CDB7DEB7C8
:1028F0002C970FB6F894DEBF0FBECDBF4F8358871D
:1029000069877A878B879C87CE0107960E94C512BC
:10291000882369F08A859B85892B39F04F815885FA
:10292000842F85238F3F09F071C016E05FC086E0D9
:10293000FE013796DE01119601900D928A95E1F71E
:102940008A859B85892B89F38F81988589238F3F81
:1029500061F32091B40130E0C90101968770992795
:102960004091B3014817190671F40E94FA111092B0
:10297000B4011092B30186E0E5EEF1E0DF011D92B3
:102980008A95E9F7D2CF96E0929FD001939FB00D40
:102990001124AB54BE4FFE01319601900D929A95D1
:1029A000E1F78093B4010E944012BFCF819FC00124
:1029B00011248B549E4F0E94C5128823E9F0E091A8
:1029C000B3011E9FF0011124EB54FE4F4081518151
:1029D00062817381848195810E9430128091B3015C
:1029E00090E00196877099278093B3018091B3019D
:1029F0009091B4018913DACF2C960FB6F894DEBF0C
:102A00000FBECDBFDF91CF911F91089569857A8563
:102A10008B859C850E94301288CFEF92FF920F9396
:102A20001F93CF93DF938C01892B81F0F12CEE243F
:102A3000E394E8012196F8018491843770F484309E
:102A400008F05FC08130B1F08230A1F1DF91CF9109
:102A50001F910F91FF90EF900895853709F44CC0B6
:102A600008F43DC09CE7980F903780F78F770E945D
:102A7000150F49C00E5F1F4FFE01849190E2980F21
:102A8000983060F48770FE2D01C0FF0F8A95EAF739
:102A90008F2F0E949F170E94C81702C00E94830EAA
:102AA0008F2D815030F2EFE9FFE03197F1F700C050
:102AB0000000F7CF0E5F1F4FFE01849190E2980F48
:102AC000983050F48770FE2D01C0FF0F8A95EAF709
:102AD0008F2F0E94A517DFCF0E94150FE1CF0E5F49
:102AE0001F4FFE01C491C150D8F28FE99FE00197BA
:102AF000F1F700C00000F7CF0E5F1F4FFE01F4900A
:102B0000CFCF0E94830E8E01CBCF08950C948515F4
:102B10000E94861560931C0270931D0280931E0212
:102B200090931F020C94E41108950C9488150F9350
:102B30001F9300911C0210911D0220911E023091E2
:102B40001F02602B712B822B932B1F910F910C94E2
:102B500088150F931F9300911C0210911D02209164
:102B60001E0230911F0260237123822393231F9141
:102B70000F910C9488150F931F9300911C021091D4
:102B80001D0220911E0230911F02602771278227AB
:102B900093271F910F910C9488150C9485150C9414
:102BA000CD150E94CF15609318027093190280937F
:102BB0001A0290931B020C94E41160E070E0CB01C8
:102BC0000C94D1150F931F9341E050E060E070E04A
:102BD0008A019B0104C0000F111F221F331F8A9519
:102BE000D2F7C901B8011F910F910C94D1150F9321
:102BF0001F9341E050E060E070E004C0440F551FB7
:102C0000661F771F8A95D2F780911802909119025A
:102C1000A0911A02B0911B028A019B01082B192B6B
:102C20002A2B3B2BC901B8011F910F910C94D11590
:102C30000F931F9341E050E060E070E004C0440F48
:102C4000551F661F771F8A95D2F7CB01BA01609591
:102C5000709580959095009118021091190220911D
:102C60001A0230911B0260237123822393231F9148
:102C70000F910C94D1150F931F9341E050E060E049
:102C800070E004C0440F551F661F771F8A95D2F766
:102C90008091180290911902A0911A02B0911B0222
:102CA0008A019B01082719272A273B27C901B80158
:102CB0001F910F910C94D1150F931F93009118023F
:102CC0001091190220911A0230911B02602B712B76
:102CD000822B932B1F910F910C94D1150F931F935F
:102CE000009118021091190220911A0230911B02D2
:102CF00060237123822393231F910F910C94D1158C
:102D00000F931F93009118021091190220911A023B
:102D100030911B0260277127822793271F910F9103
:102D20000C94D11508952EE0929F800D1124982FB8
:102D3000977041E001C0440F9A95EAF78695869511
:102D4000869595E0899FF0011124E551FE4F90E0B2
:102D500080E070E05191DF0111979B01082E02C0C5
:102D6000369527950A94E2F721702195252724238B
:102D700025272C9301968530910561F708952EE063
:102D8000929F800D1124982F977086958695869531
:102D900025E0829FF0011124E551FE4F50E040E014
:102DA00080E0219130E0092E02C0369527950A94E3
:102DB000E2F721703327042E01C0220F0A94EAF7AC
:102DC000822B4F5F5F4F4530510559F70895BF92F1
:102DD000CF92DF92EF92FF920F931F93CF93DF93E7
:102DE0008C01C0901802D0901902E0901A02F09065
:102DF0001B0280911C0290911D02A0911E02B091B5
:102E00001F02C82AD92AEA2AFB2ACFE1D0E0BC2E29
:102E1000D701C6010C2E04C0B695A7959795879546
:102E20000A94D2F780FD0EC0219788F7B12C8B2D24
:102E3000DF91CF911F910F91FF90EF90DF90CF9096
:102E4000BF900895B8018C2F0E94DF04019761F3B1
:102E5000EECFCF93DF93EC010E94E716BE01DF9126
:102E6000CF910C94DF041F93CF93DF93EB019091EC
:102E7000B201992331F0CB01DF91CF911F910C94D6
:102E80002917882379F0CB010E94E716182F682FA5
:102E9000CE010E949316BE01812FDF91CF911F9129
:102EA0000C94DF04CB010E94BF16182FF4CF682FBB
:102EB00080910001909101010C946919682F809113
:102EC0000001909101010C9474198091000190917E
:102ED00001010C947F198091200285958595859537
:102EE0000895809120028770089590912002977034
:102EF00081E009F480E00895809144020895909162
:102F00004402892B80934402089580959091440255
:102F1000982390934402089510924402089590914A
:102F20004302892B80934302089580959091430238
:102F3000982390934302089510924302089590912C
:102F40004202892B8093420208958095909142021B
:102F5000982390934202089510924202089580911E
:102F60002102089508950C94B217909121029817A8
:102F700021F0809321020C94B317089580912102CF
:102F8000882329F01092210280E00C94B317089551
:102F9000E0910001F0910101809144028083E09171
:102FA0000001F0910101808190914302892B80837F
:102FB000E0910001F0910101808190914202892B02
:102FC000808390912102992381F0E0910001F0919A
:102FD00001018081892B8083809100019091010102
:102FE0000E94D51881110E94BE1780910001909116
:102FF00001010C94310D08950C94FB1798E0899F02
:1030000090011124622B609320020E94F715809199
:1030100020028595859585950C94FC1710922002C9
:1030200080E00C94FC179091200280958923809376
:103030002002282F277071F4282F082E000C330B44
:103040009217130639F08595859585950E94181677
:103050000C940E1808956FEF7FEF90E080E00C94D1
:103060002C2590E080E00E94082521E08C3E9E4FB8
:1030700009F020E0822F089582E090E00C94002572
:1030800083E090E00C940025CF9384E090E00E94D0
:103090000025C82F81E290E00E940025982F8C2FF8
:1030A000CF910895CF93C92F682F84E090E00E94BC
:1030B0000E256C2F81E290E0CF910C940E25AB0190
:1030C000BC018FE090E00C942025AB01BC0183E1B2
:1030D00090E00C94202560E070E0CB010C94651822
:1030E00060E070E0CB010E945F180C946B186CEEEE
:1030F0007EEF90E080E00E942C2560E082E090E08E
:103100000E940E2560E083E090E00E940E25109260
:103110001C0210921D0210921E0210921F0260E00B
:1031200084E090E00E940E2560E081E290E00E9441
:103130000E2560E085E090E00E940E2560E086E0CC
:1031400090E00E940E256FEF87E090E00E940E2530
:1031500040E050E0BA0188E090E00E94202560E065
:103160008DE090E00E940E2540E050E0BA0188E139
:1031700090E00E94202560E087E190E00E940E250B
:1031800040E050E0BA018CE190E00E94202560E030
:1031900080E290E00E940E250C9470180C94771831
:1031A000682F8EE090E00C940E25FC013296809101
:1031B0001401882321F080918E029EE187FF96E022
:1031C00080E0915008F4089521912223D1F38F5F7C
:1031D000F8CF662301F1209114012223F1F0209110
:1031E0008E0227FF1AC0462F4695469546954E31CA
:1031F00090F4677021E030E002C0220F331F6A951F
:10320000E2F7840F911DFC01828190E0282339238D
:1032100081E0232B69F480E00895FC013296089642
:103220002191261721F0E817F907D1F7F4CF81E0B3
:1032300008959C01FC0132969FEF80E04191461772
:1032400051F09F3F19F4411101C0982F8F5F8630D4
:10325000A9F79F3F09F40895290F311D97FD3A956D
:10326000F90162830895FC01329608962191261394
:1032700003C0DF0111971C92E817F907B9F7089509
:10328000E62FE695E695E695EE3168F4E80FF92F1E
:10329000F11D677021E030E001C0220F6A95EAF766
:1032A0008281822B82830895E62FE695E695E69546
:1032B000EE3170F4E80FF92FF11D677021E030E076
:1032C00001C0220F6A95EAF7209582812823228384
:1032D000089520911401222329F020918E0227FDC8
:1032E0000C9440190C94191920911401222329F0EF
:1032F00020918E0227FD0C9454190C943319FC0173
:10330000329680911401882351F080918E0287FFBC
:1033100006C08EE1DF011D928A95E9F7089586E0E7
:10332000F9CF089508950C9492190E9493198091F1
:103330009402843049F11092460288E190E020E442
:103340000FB6F894A895809360000FBE209360009C
:1033500080E00E94CB040E94931983B7817F846030
:1033600083BF83B7816083BF7894889583B78E7F4E
:1033700083BF0FB6F894A895809160008861809310
:103380006000109260000FBE08950895CF930E94D0
:1033900091190E944A070E94C519C0E08C2F0E9413
:1033A000D406892B31F4CF5FC530C1F780E0CF91CF
:1033B000089581E0FCCF08950C94DB190E94FA1166
:1033C0000E94250D0E94CB040C94DC191F921FB69D
:1033D0001F9211248F939F93AF93BF9380914602C6
:1033E000811113C080918A0290918B02A0918C026E
:1033F000B0918D024196A11DB11D80938A029093D8
:103400008B02A0938C02B0938D02BF91AF919F91DC
:103410008F911F901FBE1F90189582E084BD93E08E
:1034200095BD9AEF97BD80936E0008952FB7F894DD
:1034300080918A0290918B02A0918C02B0918D02B2
:103440002FBF08952FB7F89460918A0270918B0274
:1034500080918C0290918D022FBF08959C014FB7EF
:10346000F89480918A0290918B02A0918C02B09185
:103470008D024FBF821B930B089578941F921FB645
:103480001F9211248F939F93AF93BF9380918A02D1
:1034900090918B02A0918C02B0918D020196A11D9A
:1034A000B11D80938A0290938B02A0938C02B093FB
:1034B0008D02BF91AF919F918F911F901FBE1F9062
:1034C000189581E08093E00080E28093D80010920C
:1034D000C9008FE19EE40197F1F700C0000087E08A
:1034E00090EBDC0180939D0290939E02A0939F023B
:1034F000B093A00288E19CE00FB6F894A895809361
:1035000060000FBE90936000FFCF0C943C080E94B7
:103510004A078FE39CE90197F1F700C000000E9481
:103520004A0780E00E94D40680FF04C00E94851AEA
:103530000C94611A08950E943118811102C00E94F2
:10354000CE180E943C18809345020E944418909324
:103550008F0280938E020E944018682F70E090E0E6
:1035600080E00E9495156091180270911902809177
:103570001A0290911B020C94CF1580914D0280FF8E
:1035800012C06091070185E0689FB0011124759514
:1035900067957595679560387105A8F56115710592
:1035A000A1F1862F089581FF09C06091070185E090
:1035B000689FB001112475956795EDCF6091070163
:1035C00082FD0AC080914C028823D1F090910601BF
:1035D00060910701891728F085E0689FB0011124E8
:1035E000DACF869FB001112485E0869F9001879FE6
:1035F000300D1124692F70E0C9010E94CB24CBCF7C
:1036000065E070E0CECF8FE7089581E00895809166
:103610004D0280FF0CC06091030170E075956795C5
:10362000759567956115710549F1862F089581FF9C
:1036300006C06091030170E075956795F3CF6091C6
:10364000030182FD0BC090914B029923A1F0609180
:10365000020180910301961738F0682F70E06038FE
:10366000710500F38FE70895899FC001112470E070
:103670000E94CB24F4CF61E070E0D7CF81E00895C1
:10368000803F31F40E94BD1A8195809351020895C4
:10369000813F19F40E94BD1AF8CF823F31F40E9495
:1036A000BD1A8195809350020895833F19F40E94BA
:1036B000BD1AF8CF893F29F40E94071B809352025C
:1036C00008958A3F21F40E94071B8195F7CF8B3F15
:1036D00031F40E94071B81958093530208958C3F1B
:1036E00019F40E94071BF8CF843F31F480914F02F8
:1036F000816080934F020895853F21F480914F02AD
:103700008260F7CF863F21F480914F028460F1CF31
:10371000873F21F480914F028860EBCF883F21F4EE
:1037200080914F028061E5CF8D3F31F480914D0251
:10373000816080934D0208958E3F21F480914D0267
:103740008260F7CF8F3FB9F780914D028460F1CF4F
:1037500090915002803F59F48091510287FF0DC033
:103760001092510291110BC010924C0208C0813F7F
:1037700081F48091510218169CF3992381F0809175
:10378000520290915302892B09F064C010924B02AF
:103790000895823F49F497FFF0CF10925002809134
:1037A00051028111ECCFE0CF833F19F41916ACF32D
:1037B000E4CF20915202893F29F41216F4F61092B8
:1037C0005202DBCF8A3F19F427FFD7CFF8CF2091E1
:1037D00053028B3F29F427FFD0CF10925302CDCF55
:1037E0008C3F19F41216CCF3C8CF843F31F480918A
:1037F0004F028E7F80934F02C0CF853F21F480918E
:103800004F028D7FF7CF863F21F480914F028B7F4F
:10381000F1CF873F21F480914F02877FEBCF883F24
:1038200021F480914F028F7EE5CF8D3F31F480915E
:103830004D028E7F80934D02A0CF8E3F21F4809168
:103840004D028D7FF7CF8F3F09F097CF80914D02CA
:103850008B7FF0CF08950E94161A9C019091500220
:1038600080915102982B21F030934A022093490213
:103870009091520280915302982B21F0309348028C
:10388000209347028EE492E00C944B0DEF92FF924E
:103890000F931F93CF93DF9300D000D000D0CDB70C
:1038A000DEB786E0EEE4F2E0DE01119601900D92C3
:1038B0008A95E1F7E0905002F09051020091520297
:1038C0001091530210925002109251021092520223
:1038D000109253028E2D8F2991F080914902909180
:1038E0004A020E942E1AAC0190914C02992309F4CD
:1038F0003FC0809108018417150608F447C0802F47
:10390000812B91F080914702909148020E942E1ADB
:10391000AC0190914B02992309F477C08091040186
:103920008417150608F47FC08091500290915102CF
:10393000892B90915202892B90915302892B11F07F
:103940000E942B1C86E0FE013196AEE4B2E00190AD
:103950000D928A95E1F726960FB6F894DEBF0FBE5A
:10396000CDBFDF91CF911F910F91FF90EF90089500
:10397000209109018AE0289F90011124241735071E
:1039800008F0BDCF9F5F90934C0202C09F3FD1F7DC
:10399000EE2059F00E94BD1A9FEF1E140CF491E026
:1039A000899F802D112480935002FF2059F00E949E
:1039B000BD1A9FEF1F140CF491E0899F802D1124F4
:1039C0008093510230915002332309F498CF209113
:1039D0005102222309F493CF45EB3403C001112493
:1039E000992359F09093500245EB24039001112440
:1039F000332339F03093510282CF81E0809350021B
:103A0000F3CF81E0809351027ACF209105018AE0C3
:103A1000289F900111242417350708F085CF9F5F58
:103A200090934B0202C09F3FD1F7002359F00E94B0
:103A3000071B9FEF10160CF491E0899F802D112435
:103A400080935202112359F00E94071B9FEF111619
:103A50000CF491E0899F802D1124809353023091C2
:103A60005202332309F460CF20915302222309F438
:103A70005BCF45EB3403C0011124992359F0909397
:103A8000520245EB240390011124332339F0309383
:103A900053024ACF81E080935202F3CF81E08093BA
:103AA000530242CF86E0EEE4F2E0DF011D928A95F8
:103AB000E9F710924C0210924B0210924D020895B9
:103AC000809174020895CF93DF9300D00F92CDB709
:103AD000DEB790919402943011F589837B836A83D9
:103AE0009093E9008FEF9091E800815095FD06C01A
:103AF00095ED9A95F1F700008111F5CF8091E800DE
:103B000085FF0DC050E040E063E070E0CE0101961B
:103B10000E94EB1F8091E8008E778093E8000F9061
:103B20000F900F90DF91CF910895BC0184E00C9429
:103B3000631DBC0183E00C94631D9C0184E08093B1
:103B4000E9009FEF8091E800915085FD06C085ED6A
:103B50008A95F1F700009111F5CF8091E80085FF7B
:103B60000CC050E040E066E070E0C9010E94EB1F2D
:103B70008091E8008E778093E8000895CF93DF93DB
:103B8000EC01809114018823B1F180918E0287FFAE
:103B900032C060E284E08093E9008FEF9091E8000A
:103BA000815095FD06C095ED9A95F1F700008111C1
:103BB000F5CF8091E80085FF1BC08091140170E073
:103BC00050E040E0811104C050E040E068E070E067
:103BD000CE010E94EB1F8091E8008E778093E80071
:103BE00080E2FE01A4E5B2E001900D928A95E1F732
:103BF000DF91CF91089568E081E0CDCFCF93FC01B4
:103C0000603221F580919402843001F5C091E90081
:103C1000CF702091EC00922F917020FD90E8C92B7D
:103C200082E08093E9008091E80080FF0CC050E0C2
:103C300040E060E270E0CF010E94EB1F8091E8005D
:103C40008E778093E800CF70C093E900CF910895FC
:103C500080919302811109C00E94CA210E942722EB
:103C60008091E20084608093E200089510929302B4
:103C70000895089508950C94DE1942E061EC81E006
:103C80000E94462142E261EC84E00E94462142E229
:103C900061EC82E00E94462142E260EC83E00C94F9
:103CA000462180919602833009F461C030F481305E
:103CB000D1F1823009F49DC008958A3009F489C099
:103CC0008B3009F46FC0893009F050C080919502A3
:103CD000813209F04BC08091990290919A0200972D
:103CE00019F0029709F042C08091E800877F809325
:103CF000E8008091E80082FF35C09091F300809148
:103D0000F200029729F48091F1008B7F813021F439
:103D10008091F100809374028091E8008B7780930A
:103D2000E8000C947A2180919502813AF9F480910F
:103D3000E800877F8093E8008091990290919A0231
:103D4000892B61F460E284E592E070E00E948920B2
:103D50008091E8008B778093E800089560E090E020
:103D600080E0F3CF809194028111C3CF08958091B8
:103D70009502813AD9F78091990290919A02892B04
:103D8000A9F78091E800877F8093E8008091E800A0
:103D900080FFFCCF809114018093F1008091E800B6
:103DA0008E77BDCF80919502813201F78091990283
:103DB00090919A02892BD1F68091E800877F8093B9
:103DC000E8000E947A2180919702809314010C945C
:103DD000FA1180919502813249F68091E800877F3F
:103DE0008093E8000E947A21809198028093750266
:103DF000089580919502813A09F0B8CF8091E8004A
:103E0000877F8093E8008091E80080FFFCCF80915D
:103E10007502C2CFCDB7DEB7A0970FB6F894DEBF5C
:103E20000FBECDBF84B7877F84BF0FB6F894A89527
:103E300080916000886180936000109260000FBEE6
:103E400080E890E00FB6F894809361009093610051
:103E50000FBE0E94930D0E94CA210E9427228091CA
:103E6000E20084608093E20078940E94B0240E9473
:103E70009D0D8AE091E00E94200D13E08091940254
:103E8000853039F10E94A70D809194028430B1F7FA
:103E90001093E9008091E80082FFF0CF8091E80064
:103EA00090E085FF09C050E040E060E270E0CE01A4
:103EB00001960E943A2091E08091E8008B778093F0
:103EC000E8009923D9F260E2CE0101960E949E0893
:103ED000D5CF0E94951980919202882379F20E9491
:103EE000C619882359F20E94D51FC8CF0C94781F99
:103EF000292F33272330310521F168F42130310592
:103F000009F449C02230310509F44AC090E080E04C
:103F100030E020E029C02132310581F12232310523
:103F2000A9F76330710590F7FB01EE0FFF1FE35710
:103F3000FE4F2081318166577E4FFB01808190E0EA
:103F400013C099278130910599F0009741F0823094
:103F5000910589F00397D1F6ECE7F3E002C0EEEAB1
:103F6000F3E0849190E09F01FA013183208308956A
:103F7000EAE9F3E0F6CFE2E8F3E0F3CF633071056E
:103F800028F6660F771FFB01ED56FE4F2081318129
:103F900089E090E0E9CF82E190E02DE034E0E4CFE9
:103FA0008BE590E022EB33E0DFCF80E189BD82E159
:103FB00089BD09B400FEFDCF8091D8008F7D80932C
:103FC000D8008091E00082608093E0008091E00062
:103FD00081FDFCCF0895AF92BF92CF92DF92FF9206
:103FE0000F931F93CF93DF936C01EB018A010E9423
:103FF0009921F82E811123C00115110539F0F8011E
:1040000080819181C81BD90BC80ED91EB12CA12C5F
:104010002097A9F08091E80085FD22C08091E800FA
:104020008E778093E80001151105A1F0F8018081D9
:104030009181A80EB91EB182A08285E0F82E8F2D45
:10404000DF91CF911F910F91FF90DF90CF90BF90A4
:10405000AF9008950E9499218823D1F2F82EEFCFD6
:10406000F60181916F018093F1002197FFEFAF1A64
:10407000BF0ACECFAF92BF92CF92DF92FF920F9343
:104080001F93CF93DF936C01EB018A010E9499216A
:10409000F82E811123C00115110539F0F801808136
:1040A0009181C81BD90BC80ED91EB12CA12C209709
:1040B000A9F08091E80085FD22C08091E8008B770F
:1040C0008093E80001151105A1F0F801808191812C
:1040D000A80EB91EB182A08285E0F82E8F2DDF9147
:1040E000CF911F910F91FF90DF90CF90BF90AF9035
:1040F00008950E9499218823D1F2F82EEFCF809164
:10410000F100F60181936F012197FFEFAF1ABF0A0B
:10411000CECFFC0180919B0290919C02861797075D
:10412000A0F06115710529F49091E8009E779093B5
:10413000E80090E06115710551F4911108C080917B
:10414000E80082FF34C080E00895BC01F2CF809186
:1041500094028823C1F18530C1F18091E80083FD8C
:1041600030C08091E80082FDEACF8091E80080FFB6
:10417000E1CF8091F3002091F200382F6115710595
:1041800019F02830310558F091E02830310509F058
:1041900090E02091E8002E772093E800CBCF81912A
:1041A0008093F100615071092F5F3F4FE7CF8091FD
:1041B0009402882341F0853041F08091E80083FF2C
:1041C000BECF81E0089582E0089583E00895FC0168
:1041D00080919B0290919C0286179707A0F0611531
:1041E000710529F48091E8008E778093E80090E0D3
:1041F0006115710551F4911108C08091E80082FFAA
:1042000035C080E00895BC01F2CF809194028823EC
:10421000C9F18530C9F18091E80083FD31C08091FA
:10422000E80082FDEACF8091E80080FFE1CF809135
:10423000F3002091F200382F6115710519F0283034
:10424000310558F091E02830310509F090E0809177
:10425000E8008E778093E800CBCF84918093F100C3
:104260003196615071092F5F3F4FE6CF80919402E4
:10427000882341F0853041F08091E80083FFBDCF75
:1042800081E0089582E0089583E00895982F9730A3
:1042900028F08F708093E90081E008959093E90001
:1042A000242F762F50E0981731F07091EC00209178
:1042B000ED005091F00021FD02C09F5FE8CF3091EA
:1042C000EB003E7F3093EB003091ED003D7F30936B
:1042D000ED003091EB0031603093EB007093EC0017
:1042E0002093ED005093F0002091EE0027FDE5CFE4
:1042F00080E008958091950287FF13C08091E800C7
:1043000082FF06C08091E8008B778093E80004C0AC
:10431000809194028111F2CF0895809194028823B4
:10432000D9F38091E80080FFF8CF8091E8008E7784
:10433000ECCF2091E4003091E50095E6A9012091B1
:10434000EC00822F817020FF06C08091E80080FF82
:1043500006C080E008952091E80022FD1AC08091F7
:104360009402882389F0853089F08091EB0085FDE7
:104370000FC02091E4003091E50042175307F9F295
:104380009150E1F684E0089582E0089583E0089575
:1043900081E008950E9438220E944022E0EEF0E081
:1043A000808181608083E8EDF0E080818F77808379
:1043B00019BCA7EDB0E08C918E7F8C9380818F7EAD
:1043C00080831092930208950F931F93CF93DF93EE
:1043D0000E9438220E944022C8EDD0E088818F7769
:1043E000888388818068888388818F7D888319BCD1
:1043F00010929402109290021092920210929102E6
:1044000000EE10E0F80180818B7F808388818160DD
:10441000888342E060E080E00E944621E1EEF0E027
:1044200080818E7F8083E2EEF0E0808181608083F6
:10443000808188608083F80180818E7F808388817D
:1044400080618883DF91CF911F910F910895E8EDEE
:10445000F0E080818F7E8083E7EDF0E080818160F5
:10446000808384E082BF81E0809393020C94E421F6
:10447000E8EDF0E080818E7F80831092E200089565
:104480001092DA001092E10008951F920F920FB679
:104490000F9211242F933F934F935F936F937F93CA
:1044A0008F939F93AF93BF93EF93FF938091E1001E
:1044B00082FF0BC08091E20082FF07C08091E10083
:1044C0008B7F8093E1000E94AF248091DA0080FF0F
:1044D00019C08091D80080FF15C08091DA008E7FCE
:1044E0008093DA008091D90080FF96C080E189BD79
:1044F00082E189BD09B400FEFDCF81E08093940282
:104500000E94281E8091E10080FF19C08091E20086
:1045100080FF15C08091E2008E7F8093E200809141
:10452000E20080618093E2008091D80080628093F5
:10453000D80019BC85E0809394020E943A1E8091B5
:10454000E10084FF2BC08091E20084FF27C080E15E
:1045500089BD82E189BD89B5982F917080FFFBCF1D
:104560008091D8008F7D8093D8008091E1008F7E6C
:104570008093E1008091E2008F7E8093E200809141
:10458000E20081608093E20080919002882309F428
:1045900049C084E0809394020E943B1E8091E10018
:1045A00083FF29C08091E20083FF25C08091E10054
:1045B000877F8093E10082E08093940210929002C2
:1045C0008091E1008E7F8093E1008091E2008E7FF8
:1045D0008093E2008091E20080618093E20042E0FB
:1045E00060E080E00E9446218091F0008860809326
:1045F000F0000E94391EFF91EF91BF91AF919F9102
:104600008F917F916F915F914F913F912F910F907B
:104610000FBE0F901F90189519BC109294020E9423
:10462000361E70CF8091E30087FD93E09093940253
:10463000B3CF1F920F920FB60F9211242F933F9377
:104640004F935F936F937F938F939F93AF93BF939A
:10465000CF93DF93EF93FF93D091E900DF708091C8
:10466000EC00C82FC17080FDC0E81092E900809175
:10467000F000877F8093F00078940E945D23109271
:10468000E9008091F00088608093F000CD2BCF701E
:10469000C093E900FF91EF91DF91CF91BF91AF916E
:1046A0009F918F917F916F915F914F913F912F914A
:1046B0000F900FBE0F901F9018951F93CF93DF930D
:1046C000CDB7DEB7AA970FB6F894DEBF0FBECDBF49
:1046D00085E992E02091F100FC012193CF01F2E005
:1046E0008D399F07B9F70E94511E8091E80083FF22
:1046F0001EC180919502909196029A3008F017C1E0
:10470000E92FF0E0EB58FA4D0C94DF24803899F053
:10471000823809F00CC1809199028F70873008F0BF
:1047200006C18093E9008091EB0085FB882780F922
:104730001092E90006C0809191029091920291112D
:1047400082609091E800977F9093E8008093F10059
:104750001092F1008091E8008E77E5C0882309F47B
:10476000D3C0823009F0E3C0809197028111D6C096
:10477000809199028F702FEF280F263008F0D7C054
:104780008093E9002091EB0020FFC8C0933031F402
:104790008091EB0080628093EB00C0C09091EB00B1
:1047A00090619093EB0021E030E001C0220F8A95E8
:1047B000EAF72093EA001092EA008091EB0088600B
:1047C000EACF8111B4C0109197021F778091E30066
:1047D0008078812B8093E3008091E800877F80932D
:1047E000E8000E947A218091E80080FFFCCF809150
:1047F000E30080688093E30082E0111183E08093FE
:10480000940295C08058823008F091C08091970240
:10481000909198028C3D23E09207A1F583E08A8372
:104820008AE289834FB7F894DE01139620E03EE0D8
:1048300051E2E32FF0E050935700E49120FF03C0D2
:10484000E295EF703F5FEF708E2F90E0EA30C0F09E
:10485000C7968D939D932F5F243159F74FBF809159
:10486000E800877F8093E8006AE270E0CE0101965D
:104870000E9489208091E8008B778093E80057C0E0
:10488000C096E7CF6091990270919A02AE014F5F96
:104890005F4F0E94761FBC01892B09F448C090919C
:1048A000E800977F9093E80089819A810E94E72031
:1048B000E1CF8038E1F58091E800877F8093E800C0
:1048C000809190028093F10045CF811130C090918A
:1048D0009702923060F58091E800877F8093E8002E
:1048E000909390020E947A2180919002882311F087
:1048F00084E005C08091E30087FDFACF81E08093DA
:1049000094020E943D1E13C080919702813079F479
:1049100081E0933009F080E0809392021092E900E8
:104920008091E800877F8093E8000E947A2180913F
:10493000E80083FF0AC08091E800877F8093E80049
:104940008091EB0080628093EB00AA960FB6F894FA
:10495000DEBF0FBECDBFDF91CF911F9108950895A7
:10496000CF93809194028823A1F0C091E900CF7089
:104970009091EC00892F817090FD80E8C82B1092F7
:10498000E9008091E80083FD0E945D23CF70C09311
:10499000E900CF91089597FB072E16F4009407D0F5
:1049A00077FD09D00E94EC2407FC05D03EF49095D9
:1049B00081959F4F0895709561957F4F0895EE0FF3
:1049C000FF1F0590F491E02D099469279627692728
:1049D0007827872778270895AA1BBB1B51E107C0BA
:1049E000AA1FBB1FA617B70710F0A61BB70B881F7F
:1049F000991F5A95A9F780959095BC01CD0108950E
:104A0000F999FECF92BD81BDF89A992780B5089596
:104A1000A8E1B0E042E050E00C943425262FF9994B
:104A2000FECF92BD81BDF89A019700B4021639F00D
:104A30001FBA20BD0FB6F894FA9AF99A0FBE0895DE
:104A40000396272F0E940F250E940E25252F0E94D6
:104A50000F25242F0C940F250196272F0E940F2538
:104A60000C940E25DC01CB01FC01F999FECF06C0A8
:104A7000F2BDE1BDF89A319600B40D92415050401C
:104A8000B8F70895F894FFCFB008BD08E408F0081F
:104A9000FB080609090909090909520955090C0900
:104AA0001009180925093209350938094509C30FC4
:104AB000C30F1B101B106D108910F00FF00F941016
:104AC00020112F112F118B11F00FF00F94110912DB
:104AD00009121212121214121212121212120912C6
:104AE000091219121212121219128623AE239724D8
:0E4AF000AE239724E123022497245924652441
:104AFE0022022808641E140A321E601DBE1D9D1D52
:104B0E00991D951D01E200E900EA00B500B600B757
:104B1E0000CD008301CC008A019201940121022371
:104B2E000224022502260227022A02B300B4006FD5
:104B3E00007000818283F0F1C66766369431373596
:104B4E00349796339091929395E200E900EA00B57E
:104B5E0000B600B700CD008301CC008A019201940B
:104B6E00012102230224022502260227022A02B371
:104B7E0000B4006F0070008182834022BCFD041FD0
:0A4B8E00044104C403DD03FD03002D
:00000001FF
